{
  "_format": "hh-sol-artifact-1",
  "contractName": "Escrow",
  "sourceName": "contracts/Escrow.sol",
  "abi": [
    {
      "inputs": [
        {
          "internalType": "string",
          "name": "_productName",
          "type": "string"
        },
        {
          "internalType": "string",
          "name": "_productDescription",
          "type": "string"
        },
        {
          "internalType": "string",
          "name": "_productCategory",
          "type": "string"
        },
        {
          "internalType": "uint256",
          "name": "_price",
          "type": "uint256"
        },
        {
          "internalType": "string",
          "name": "_productImageURL",
          "type": "string"
        },
        {
          "internalType": "string",
          "name": "_sellerEmail",
          "type": "string"
        }
      ],
      "name": "addToBlockchain",
      "outputs": [],
      "stateMutability": "nonpayable",
      "type": "function"
    },
    {
      "inputs": [
        {
          "internalType": "uint256",
          "name": "_id",
          "type": "uint256"
        },
        {
          "internalType": "string",
          "name": "_productName",
          "type": "string"
        },
        {
          "internalType": "string",
          "name": "_productDescription",
          "type": "string"
        },
        {
          "internalType": "uint256",
          "name": "_price",
          "type": "uint256"
        },
        {
          "internalType": "string",
          "name": "_productImageURL",
          "type": "string"
        },
        {
          "internalType": "string",
          "name": "_sellerEmail",
          "type": "string"
        },
        {
          "internalType": "address",
          "name": "_sellerAddress",
          "type": "address"
        },
        {
          "internalType": "uint256",
          "name": "_timeToRevert",
          "type": "uint256"
        }
      ],
      "name": "addToCart",
      "outputs": [],
      "stateMutability": "payable",
      "type": "function"
    },
    {
      "inputs": [
        {
          "internalType": "uint256",
          "name": "_id",
          "type": "uint256"
        }
      ],
      "name": "deleteCard",
      "outputs": [],
      "stateMutability": "nonpayable",
      "type": "function"
    },
    {
      "anonymous": false,
      "inputs": [
        {
          "indexed": true,
          "internalType": "address",
          "name": "previousOwner",
          "type": "address"
        },
        {
          "indexed": true,
          "internalType": "address",
          "name": "newOwner",
          "type": "address"
        }
      ],
      "name": "OwnershipTransferred",
      "type": "event"
    },
    {
      "inputs": [
        {
          "internalType": "uint256",
          "name": "_id",
          "type": "uint256"
        }
      ],
      "name": "removeFromCart",
      "outputs": [],
      "stateMutability": "nonpayable",
      "type": "function"
    },
    {
      "inputs": [
        {
          "internalType": "address payable",
          "name": "newOwner",
          "type": "address"
        }
      ],
      "name": "transferOwnership",
      "outputs": [],
      "stateMutability": "nonpayable",
      "type": "function"
    },
    {
      "inputs": [
        {
          "internalType": "uint256",
          "name": "_id",
          "type": "uint256"
        },
        {
          "internalType": "address payable",
          "name": "buyerAddress",
          "type": "address"
        }
      ],
      "name": "transferToBuyer",
      "outputs": [],
      "stateMutability": "nonpayable",
      "type": "function"
    },
    {
      "inputs": [
        {
          "internalType": "uint256",
          "name": "_id",
          "type": "uint256"
        },
        {
          "internalType": "address payable",
          "name": "sellerAddress",
          "type": "address"
        },
        {
          "internalType": "address",
          "name": "buyerAddress",
          "type": "address"
        }
      ],
      "name": "transferToSeller",
      "outputs": [],
      "stateMutability": "nonpayable",
      "type": "function"
    },
    {
      "inputs": [
        {
          "internalType": "uint256",
          "name": "_id",
          "type": "uint256"
        }
      ],
      "name": "updateShop",
      "outputs": [],
      "stateMutability": "nonpayable",
      "type": "function"
    },
    {
      "inputs": [
        {
          "internalType": "uint256",
          "name": "",
          "type": "uint256"
        }
      ],
      "name": "cart",
      "outputs": [
        {
          "internalType": "uint256",
          "name": "productId",
          "type": "uint256"
        },
        {
          "internalType": "address",
          "name": "sellerAddress",
          "type": "address"
        },
        {
          "internalType": "address",
          "name": "buyerAddress",
          "type": "address"
        },
        {
          "internalType": "string",
          "name": "productName",
          "type": "string"
        },
        {
          "internalType": "string",
          "name": "productDescription",
          "type": "string"
        },
        {
          "internalType": "uint256",
          "name": "price",
          "type": "uint256"
        },
        {
          "internalType": "string",
          "name": "productImageURL",
          "type": "string"
        },
        {
          "internalType": "string",
          "name": "sellerEmail",
          "type": "string"
        },
        {
          "internalType": "uint256",
          "name": "timeToRevert",
          "type": "uint256"
        },
        {
          "internalType": "uint256",
          "name": "timestamp",
          "type": "uint256"
        }
      ],
      "stateMutability": "view",
      "type": "function"
    },
    {
      "inputs": [],
      "name": "contractAmount",
      "outputs": [
        {
          "internalType": "uint256",
          "name": "",
          "type": "uint256"
        }
      ],
      "stateMutability": "view",
      "type": "function"
    },
    {
      "inputs": [],
      "name": "getAllProdcuts",
      "outputs": [
        {
          "components": [
            {
              "internalType": "uint256",
              "name": "productId",
              "type": "uint256"
            },
            {
              "internalType": "address",
              "name": "seller",
              "type": "address"
            },
            {
              "internalType": "string",
              "name": "productName",
              "type": "string"
            },
            {
              "internalType": "string",
              "name": "productDescription",
              "type": "string"
            },
            {
              "internalType": "string",
              "name": "productCategory",
              "type": "string"
            },
            {
              "internalType": "uint256",
              "name": "price",
              "type": "uint256"
            },
            {
              "internalType": "string",
              "name": "productImageURL",
              "type": "string"
            },
            {
              "internalType": "string",
              "name": "sellerEmail",
              "type": "string"
            },
            {
              "internalType": "bool",
              "name": "hasPurchased",
              "type": "bool"
            },
            {
              "internalType": "uint256",
              "name": "timestamp",
              "type": "uint256"
            }
          ],
          "internalType": "struct Escrow.productInfo[]",
          "name": "",
          "type": "tuple[]"
        }
      ],
      "stateMutability": "view",
      "type": "function"
    },
    {
      "inputs": [
        {
          "internalType": "address",
          "name": "buyerAddress",
          "type": "address"
        },
        {
          "internalType": "uint256",
          "name": "_id",
          "type": "uint256"
        }
      ],
      "name": "getDeposits",
      "outputs": [
        {
          "internalType": "uint256",
          "name": "amount",
          "type": "uint256"
        },
        {
          "internalType": "bool",
          "name": "done",
          "type": "bool"
        }
      ],
      "stateMutability": "view",
      "type": "function"
    },
    {
      "inputs": [],
      "name": "getSenderAddress",
      "outputs": [
        {
          "internalType": "address",
          "name": "",
          "type": "address"
        }
      ],
      "stateMutability": "view",
      "type": "function"
    },
    {
      "inputs": [],
      "name": "id",
      "outputs": [
        {
          "internalType": "uint256",
          "name": "",
          "type": "uint256"
        }
      ],
      "stateMutability": "view",
      "type": "function"
    },
    {
      "inputs": [
        {
          "internalType": "address",
          "name": "",
          "type": "address"
        },
        {
          "internalType": "uint256",
          "name": "",
          "type": "uint256"
        }
      ],
      "name": "isPaymentDone",
      "outputs": [
        {
          "internalType": "bool",
          "name": "",
          "type": "bool"
        }
      ],
      "stateMutability": "view",
      "type": "function"
    },
    {
      "inputs": [],
      "name": "owner",
      "outputs": [
        {
          "internalType": "address payable",
          "name": "",
          "type": "address"
        }
      ],
      "stateMutability": "view",
      "type": "function"
    },
    {
      "inputs": [
        {
          "internalType": "address",
          "name": "",
          "type": "address"
        },
        {
          "internalType": "uint256",
          "name": "",
          "type": "uint256"
        }
      ],
      "name": "payment",
      "outputs": [
        {
          "internalType": "uint256",
          "name": "",
          "type": "uint256"
        }
      ],
      "stateMutability": "view",
      "type": "function"
    },
    {
      "inputs": [],
      "name": "reteriveCart",
      "outputs": [
        {
          "components": [
            {
              "internalType": "uint256",
              "name": "productId",
              "type": "uint256"
            },
            {
              "internalType": "address",
              "name": "sellerAddress",
              "type": "address"
            },
            {
              "internalType": "address",
              "name": "buyerAddress",
              "type": "address"
            },
            {
              "internalType": "string",
              "name": "productName",
              "type": "string"
            },
            {
              "internalType": "string",
              "name": "productDescription",
              "type": "string"
            },
            {
              "internalType": "uint256",
              "name": "price",
              "type": "uint256"
            },
            {
              "internalType": "string",
              "name": "productImageURL",
              "type": "string"
            },
            {
              "internalType": "string",
              "name": "sellerEmail",
              "type": "string"
            },
            {
              "internalType": "uint256",
              "name": "timeToRevert",
              "type": "uint256"
            },
            {
              "internalType": "uint256",
              "name": "timestamp",
              "type": "uint256"
            }
          ],
          "internalType": "struct Escrow.cartInfo[]",
          "name": "",
          "type": "tuple[]"
        }
      ],
      "stateMutability": "view",
      "type": "function"
    }
  ],
  "bytecode": "0x60806040526001805534801561001457600080fd5b50600080546001600160a01b0319163317905561211e806100366000396000f3fe6080604052600436106101095760003560e01c80639d9c12b711610095578063ca29610e11610064578063ca29610e146102ff578063eed564421461031f578063f02b8cdb14610341578063f2fde38b14610363578063f5b842f71461038357600080fd5b80639d9c12b71461025e578063af640d0f146102a9578063c2cb3ccb146102bf578063c6c8c502146102df57600080fd5b80635e1acf65116100dc5780635e1acf65146101b357806362066099146101d357806367a09c23146101f35780637a3c7dc01461022b5780638da5cb5b1461023e57600080fd5b80631d586f7c1461010e57806335368f721461014d57806342948e181461016f578063565a57ca14610196575b600080fd5b34801561011a57600080fd5b5061012e6101293660046117a6565b6103f4565b6040516101449a9998979695949392919061180c565b60405180910390f35b34801561015957600080fd5b5061016d6101683660046118b2565b610682565b005b34801561017b57600080fd5b50335b6040516001600160a01b039091168152602001610144565b3480156101a257600080fd5b50475b604051908152602001610144565b3480156101bf57600080fd5b5061016d6101ce3660046117a6565b610718565b3480156101df57600080fd5b5061016d6101ee3660046117a6565b610946565b3480156101ff57600080fd5b506101a561020e3660046118f2565b600260209081526000928352604080842090915290825290205481565b61016d6102393660046119c1565b6109d1565b34801561024a57600080fd5b5060005461017e906001600160a01b031681565b34801561026a57600080fd5b506102996102793660046118f2565b600360209081526000928352604080842090915290825290205460ff1681565b6040519015158152602001610144565b3480156102b557600080fd5b506101a560015481565b3480156102cb57600080fd5b5061016d6102da366004611a9c565b610b9b565b3480156102eb57600080fd5b5061016d6102fa366004611ade565b610ca0565b34801561030b57600080fd5b5061016d61031a3660046117a6565b610e43565b34801561032b57600080fd5b5061033461105b565b6040516101449190611bb8565b34801561034d57600080fd5b506103566113de565b6040516101449190611cde565b34801561036f57600080fd5b5061016d61037e366004611dde565b6116cb565b34801561038f57600080fd5b506103df61039e3660046118f2565b6001600160a01b03821660008181526002602090815260408083208584528252808320549383526003825280832085845290915290205460ff169250929050565b60408051928352901515602083015201610144565b6005818154811061040457600080fd5b60009182526020909120600a909102018054600182015460028301546003840180549395506001600160a01b0392831694929091169261044390611e02565b80601f016020809104026020016040519081016040528092919081815260200182805461046f90611e02565b80156104bc5780601f10610491576101008083540402835291602001916104bc565b820191906000526020600020905b81548152906001019060200180831161049f57829003601f168201915b5050505050908060040180546104d190611e02565b80601f01602080910402602001604051908101604052809291908181526020018280546104fd90611e02565b801561054a5780601f1061051f5761010080835404028352916020019161054a565b820191906000526020600020905b81548152906001019060200180831161052d57829003601f168201915b50505050509080600501549080600601805461056590611e02565b80601f016020809104026020016040519081016040528092919081815260200182805461059190611e02565b80156105de5780601f106105b3576101008083540402835291602001916105de565b820191906000526020600020905b8154815290600101906020018083116105c157829003601f168201915b5050505050908060070180546105f390611e02565b80601f016020809104026020016040519081016040528092919081815260200182805461061f90611e02565b801561066c5780601f106106415761010080835404028352916020019161066c565b820191906000526020600020905b81548152906001019060200180831161064f57829003601f168201915b505050505090806008015490806009015490508a565b6001600160a01b038116600081815260026020908152604080832086845290915280822054905190929183156108fc02918491818181858888f193505050501580156106d2573d6000803e3d6000fd5b506001600160a01b03821660009081526003602090815260408083208684529091529020805460ff1916600117905561070a83610e43565b61071383610718565b505050565b6000805b60045481101561076b57826004828154811061073a5761073a611e3c565b90600052602060002090600a020160000154036107595780915061076b565b8061076381611e68565b91505061071c565b50805b60045461077d90600190611e81565b81101561089f576004610791826001611e98565b815481106107a1576107a1611e3c565b90600052602060002090600a0201600482815481106107c2576107c2611e3c565b600091825260209091208254600a9092020190815560018083015490820180546001600160a01b0319166001600160a01b0390921691909117905560028082019061080f90840182611ef6565b5060038181019061082290840182611ef6565b5060048181019061083590840182611ef6565b5060058201548160050155600682018160060190816108549190611ef6565b5060078181019061086790840182611ef6565b50600882810154908201805460ff191660ff90921615159190911790556009918201549101558061089781611e68565b91505061076e565b5060048054806108b1576108b1611fd7565b600082815260208120600a600019909301928302018181556001810180546001600160a01b0319169055906108e96002830182611750565b6108f7600383016000611750565b610905600483016000611750565b600582016000905560068201600061091d9190611750565b61092b600783016000611750565b5060088101805460ff19169055600060099091015590555050565b6000805b60045481101561099557826004828154811061096857610968611e3c565b90600052602060002090600a02016000015403610983578091505b8061098d81611e68565b91505061094a565b506001600482815481106109ab576109ab611e3c565b60009182526020909120600a90910201600801805460ff19169115159190911790555050565b60408051610140810182528981526001600160a01b038085166020830190815233938301938452606083018b8152608084018b905260a084018a905260c0840189905260e08401889052610100840186905242610120850152600580546001810182556000919091528451600a9091027f036b6384b5eca791c62761152d0c79bb0604c104a5fb6f4eb0703f3154bb3db0810191825592517f036b6384b5eca791c62761152d0c79bb0604c104a5fb6f4eb0703f3154bb3db1840180549186166001600160a01b031992831617905595517f036b6384b5eca791c62761152d0c79bb0604c104a5fb6f4eb0703f3154bb3db2840180549190951696169590951790925590519192917f036b6384b5eca791c62761152d0c79bb0604c104a5fb6f4eb0703f3154bb3db390910190610b089082611fed565b5060808201516004820190610b1d9082611fed565b5060a0820151600582015560c08201516006820190610b3c9082611fed565b5060e08201516007820190610b519082611fed565b50610100820151816008015561012082015181600901555050610b7388610946565b5050336000908152600260209081526040808320988352979052959095209190915550505050565b6001600160a01b0381166000908152600260209081526040808320868452909152812054906064610bcd83605d6120a7565b610bd791906120c6565b90506000610be58284611e81565b600080546040519293506001600160a01b03169184156108fc0291859190818181858888f19350505050158015610c20573d6000803e3d6000fd5b506040516001600160a01b0386169082156108fc029083906000818181858888f19350505050158015610c57573d6000803e3d6000fd5b506001600160a01b03841660009081526003602090815260408083208984529091529020805460ff19166001179055610c8f86610e43565b610c9886610718565b505050505050565b60408051610140810182526001805482523360208301908152928201898152606083018990526080830188905260a0830187905260c0830186905260e083018590526000610100840181905242610120850152600480549384018155905282517f8a35acfbc15ff81a39ae7d344fd709f28e8600b4aa8c65c6b64bfe7fe36bd19b600a90930292830190815593517f8a35acfbc15ff81a39ae7d344fd709f28e8600b4aa8c65c6b64bfe7fe36bd19c830180546001600160a01b0319166001600160a01b03909216919091179055519192917f8a35acfbc15ff81a39ae7d344fd709f28e8600b4aa8c65c6b64bfe7fe36bd19d90910190610da19082611fed565b5060608201516003820190610db69082611fed565b5060808201516004820190610dcb9082611fed565b5060a0820151600582015560c08201516006820190610dea9082611fed565b5060e08201516007820190610dff9082611fed565b5061010082015160088201805460ff19169115159190911790556101209091015160099091015560018054906000610e3683611e68565b9190505550505050505050565b6000805b600554811015610e96578260058281548110610e6557610e65611e3c565b90600052602060002090600a02016000015403610e8457809150610e96565b80610e8e81611e68565b915050610e47565b50805b600554610ea890600190611e81565b811015610fb9576005610ebc826001611e98565b81548110610ecc57610ecc611e3c565b90600052602060002090600a020160058281548110610eed57610eed611e3c565b600091825260209091208254600a9092020190815560018083015490820180546001600160a01b039283166001600160a01b0319918216179091556002808501549084018054919093169116179055600380820190610f4e90840182611ef6565b50600481810190610f6190840182611ef6565b506005820154816005015560068201816006019081610f809190611ef6565b50600781810190610f9390840182611ef6565b506008828101549082015560099182015491015580610fb181611e68565b915050610e99565b506005805480610fcb57610fcb611fd7565b600082815260208120600a600019909301928302018181556001810180546001600160a01b03199081169091556002820180549091169055906110116003830182611750565b61101f600483016000611750565b60058201600090556006820160006110379190611750565b611045600783016000611750565b5060006008820181905560099091015590555050565b60606004805480602002602001604051908101604052809291908181526020016000905b828210156113d55760008481526020908190206040805161014081018252600a86029092018054835260018101546001600160a01b031693830193909352600283018054929392918401916110d390611e02565b80601f01602080910402602001604051908101604052809291908181526020018280546110ff90611e02565b801561114c5780601f106111215761010080835404028352916020019161114c565b820191906000526020600020905b81548152906001019060200180831161112f57829003601f168201915b5050505050815260200160038201805461116590611e02565b80601f016020809104026020016040519081016040528092919081815260200182805461119190611e02565b80156111de5780601f106111b3576101008083540402835291602001916111de565b820191906000526020600020905b8154815290600101906020018083116111c157829003601f168201915b505050505081526020016004820180546111f790611e02565b80601f016020809104026020016040519081016040528092919081815260200182805461122390611e02565b80156112705780601f1061124557610100808354040283529160200191611270565b820191906000526020600020905b81548152906001019060200180831161125357829003601f168201915b505050505081526020016005820154815260200160068201805461129390611e02565b80601f01602080910402602001604051908101604052809291908181526020018280546112bf90611e02565b801561130c5780601f106112e15761010080835404028352916020019161130c565b820191906000526020600020905b8154815290600101906020018083116112ef57829003601f168201915b5050505050815260200160078201805461132590611e02565b80601f016020809104026020016040519081016040528092919081815260200182805461135190611e02565b801561139e5780601f106113735761010080835404028352916020019161139e565b820191906000526020600020905b81548152906001019060200180831161138157829003601f168201915b5050509183525050600882015460ff161515602080830191909152600990920154604090910152908252600192909201910161107f565b50505050905090565b60606005805480602002602001604051908101604052809291908181526020016000905b828210156113d55760008481526020908190206040805161014081018252600a86029092018054835260018101546001600160a01b039081169484019490945260028101549093169082015260038201805491929160608401919061146690611e02565b80601f016020809104026020016040519081016040528092919081815260200182805461149290611e02565b80156114df5780601f106114b4576101008083540402835291602001916114df565b820191906000526020600020905b8154815290600101906020018083116114c257829003601f168201915b505050505081526020016004820180546114f890611e02565b80601f016020809104026020016040519081016040528092919081815260200182805461152490611e02565b80156115715780601f1061154657610100808354040283529160200191611571565b820191906000526020600020905b81548152906001019060200180831161155457829003601f168201915b505050505081526020016005820154815260200160068201805461159490611e02565b80601f01602080910402602001604051908101604052809291908181526020018280546115c090611e02565b801561160d5780601f106115e25761010080835404028352916020019161160d565b820191906000526020600020905b8154815290600101906020018083116115f057829003601f168201915b5050505050815260200160078201805461162690611e02565b80601f016020809104026020016040519081016040528092919081815260200182805461165290611e02565b801561169f5780601f106116745761010080835404028352916020019161169f565b820191906000526020600020905b81548152906001019060200180831161168257829003601f168201915b505050505081526020016008820154815260200160098201548152505081526020019060010190611402565b6000546001600160a01b031633146116e257600080fd5b6001600160a01b0381166116f557600080fd5b600080546040516001600160a01b03808516939216917f8be0079c531659141344cd1fd0a4f28419497f9722a3daafe3b4186f6b6457e091a3600080546001600160a01b0319166001600160a01b0392909216919091179055565b50805461175c90611e02565b6000825580601f1061176c575050565b601f01602090049060005260206000209081019061178a919061178d565b50565b5b808211156117a2576000815560010161178e565b5090565b6000602082840312156117b857600080fd5b5035919050565b6000815180845260005b818110156117e5576020818501810151868301820152016117c9565b818111156117f7576000602083870101525b50601f01601f19169290920160200192915050565b8a81526001600160a01b038a81166020830152891660408201526101406060820181905260009061183f8382018b6117bf565b90508281036080840152611853818a6117bf565b90508760a084015282810360c084015261186d81886117bf565b905082810360e084015261188181876117bf565b6101008401959095525050610120015298975050505050505050565b6001600160a01b038116811461178a57600080fd5b600080604083850312156118c557600080fd5b8235915060208301356118d78161189d565b809150509250929050565b80356118ed8161189d565b919050565b6000806040838503121561190557600080fd5b82356119108161189d565b946020939093013593505050565b634e487b7160e01b600052604160045260246000fd5b600082601f83011261194557600080fd5b813567ffffffffffffffff808211156119605761196061191e565b604051601f8301601f19908116603f011681019082821181831017156119885761198861191e565b816040528381528660208588010111156119a157600080fd5b836020870160208301376000602085830101528094505050505092915050565b600080600080600080600080610100898b0312156119de57600080fd5b88359750602089013567ffffffffffffffff808211156119fd57600080fd5b611a098c838d01611934565b985060408b0135915080821115611a1f57600080fd5b611a2b8c838d01611934565b975060608b0135965060808b0135915080821115611a4857600080fd5b611a548c838d01611934565b955060a08b0135915080821115611a6a57600080fd5b50611a778b828c01611934565b935050611a8660c08a016118e2565b915060e089013590509295985092959890939650565b600080600060608486031215611ab157600080fd5b833592506020840135611ac38161189d565b91506040840135611ad38161189d565b809150509250925092565b60008060008060008060c08789031215611af757600080fd5b863567ffffffffffffffff80821115611b0f57600080fd5b611b1b8a838b01611934565b97506020890135915080821115611b3157600080fd5b611b3d8a838b01611934565b96506040890135915080821115611b5357600080fd5b611b5f8a838b01611934565b9550606089013594506080890135915080821115611b7c57600080fd5b611b888a838b01611934565b935060a0890135915080821115611b9e57600080fd5b50611bab89828a01611934565b9150509295509295509295565b60006020808301818452808551808352604092508286019150828160051b87010184880160005b83811015611cd057603f19898403018552815180518452878101516001600160a01b0316888501528681015161014088860181905290611c21828701826117bf565b91505060608083015186830382880152611c3b83826117bf565b9250505060808083015186830382880152611c5683826117bf565b9250505060a080830151818701525060c08083015186830382880152611c7c83826117bf565b9250505060e08083015186830382880152611c9783826117bf565b9250505061010080830151611caf8288018215159052565b50506101209182015194909101939093529386019390860190600101611bdf565b509098975050505050505050565b60006020808301818452808551808352604092508286019150828160051b87010184880160005b83811015611cd057603f19898403018552815180518452878101516001600160a01b03908116898601528782015116878501526060808201516101408287018190529190611d55838801826117bf565b9250505060808083015186830382880152611d7083826117bf565b9250505060a080830151818701525060c08083015186830382880152611d9683826117bf565b9250505060e08083015186830382880152611db183826117bf565b61010085810151908901526101209485015194909701939093525050509386019390860190600101611d05565b600060208284031215611df057600080fd5b8135611dfb8161189d565b9392505050565b600181811c90821680611e1657607f821691505b602082108103611e3657634e487b7160e01b600052602260045260246000fd5b50919050565b634e487b7160e01b600052603260045260246000fd5b634e487b7160e01b600052601160045260246000fd5b600060018201611e7a57611e7a611e52565b5060010190565b600082821015611e9357611e93611e52565b500390565b60008219821115611eab57611eab611e52565b500190565b601f82111561071357600081815260208120601f850160051c81016020861015611ed75750805b601f850160051c820191505b81811015610c9857828155600101611ee3565b818103611f01575050565b611f0b8254611e02565b67ffffffffffffffff811115611f2357611f2361191e565b611f3781611f318454611e02565b84611eb0565b6000601f821160018114611f6b5760008315611f535750848201545b600019600385901b1c1916600184901b178455611fd0565b600085815260209020601f19841690600086815260209020845b83811015611fa55782860154825560019586019590910190602001611f85565b5085831015611fc35781850154600019600388901b60f8161c191681555b50505060018360011b0184555b5050505050565b634e487b7160e01b600052603160045260246000fd5b815167ffffffffffffffff8111156120075761200761191e565b61201581611f318454611e02565b602080601f83116001811461204a57600084156120325750858301515b600019600386901b1c1916600185901b178555610c98565b600085815260208120601f198616915b828110156120795788860151825594840194600190910190840161205a565b50858210156120975787850151600019600388901b60f8161c191681555b5050505050600190811b01905550565b60008160001904831182151516156120c1576120c1611e52565b500290565b6000826120e357634e487b7160e01b600052601260045260246000fd5b50049056fea26469706673582212208c898ed14974ea4f769366f9c28ee64230d3dc5f9cf1b61919d35a6ddec4341264736f6c634300080f0033",
  "deployedBytecode": "0x60806040526001805534801561001457600080fd5b50600080546001600160a01b0319163317905561211e806100366000396000f3fe6080604052600436106101095760003560e01c80639d9c12b711610095578063ca29610e11610064578063ca29610e146102ff578063eed564421461031f578063f02b8cdb14610341578063f2fde38b14610363578063f5b842f71461038357600080fd5b80639d9c12b71461025e578063af640d0f146102a9578063c2cb3ccb146102bf578063c6c8c502146102df57600080fd5b80635e1acf65116100dc5780635e1acf65146101b357806362066099146101d357806367a09c23146101f35780637a3c7dc01461022b5780638da5cb5b1461023e57600080fd5b80631d586f7c1461010e57806335368f721461014d57806342948e181461016f578063565a57ca14610196575b600080fd5b34801561011a57600080fd5b5061012e6101293660046117a6565b6103f4565b6040516101449a9998979695949392919061180c565b60405180910390f35b34801561015957600080fd5b5061016d6101683660046118b2565b610682565b005b34801561017b57600080fd5b50335b6040516001600160a01b039091168152602001610144565b3480156101a257600080fd5b50475b604051908152602001610144565b3480156101bf57600080fd5b5061016d6101ce3660046117a6565b610718565b3480156101df57600080fd5b5061016d6101ee3660046117a6565b610946565b3480156101ff57600080fd5b506101a561020e3660046118f2565b600260209081526000928352604080842090915290825290205481565b61016d6102393660046119c1565b6109d1565b34801561024a57600080fd5b5060005461017e906001600160a01b031681565b34801561026a57600080fd5b506102996102793660046118f2565b600360209081526000928352604080842090915290825290205460ff1681565b6040519015158152602001610144565b3480156102b557600080fd5b506101a560015481565b3480156102cb57600080fd5b5061016d6102da366004611a9c565b610b9b565b3480156102eb57600080fd5b5061016d6102fa366004611ade565b610ca0565b34801561030b57600080fd5b5061016d61031a3660046117a6565b610e43565b34801561032b57600080fd5b5061033461105b565b6040516101449190611bb8565b34801561034d57600080fd5b506103566113de565b6040516101449190611cde565b34801561036f57600080fd5b5061016d61037e366004611dde565b6116cb565b34801561038f57600080fd5b506103df61039e3660046118f2565b6001600160a01b03821660008181526002602090815260408083208584528252808320549383526003825280832085845290915290205460ff169250929050565b60408051928352901515602083015201610144565b6005818154811061040457600080fd5b60009182526020909120600a909102018054600182015460028301546003840180549395506001600160a01b0392831694929091169261044390611e02565b80601f016020809104026020016040519081016040528092919081815260200182805461046f90611e02565b80156104bc5780601f10610491576101008083540402835291602001916104bc565b820191906000526020600020905b81548152906001019060200180831161049f57829003601f168201915b5050505050908060040180546104d190611e02565b80601f01602080910402602001604051908101604052809291908181526020018280546104fd90611e02565b801561054a5780601f1061051f5761010080835404028352916020019161054a565b820191906000526020600020905b81548152906001019060200180831161052d57829003601f168201915b50505050509080600501549080600601805461056590611e02565b80601f016020809104026020016040519081016040528092919081815260200182805461059190611e02565b80156105de5780601f106105b3576101008083540402835291602001916105de565b820191906000526020600020905b8154815290600101906020018083116105c157829003601f168201915b5050505050908060070180546105f390611e02565b80601f016020809104026020016040519081016040528092919081815260200182805461061f90611e02565b801561066c5780601f106106415761010080835404028352916020019161066c565b820191906000526020600020905b81548152906001019060200180831161064f57829003601f168201915b505050505090806008015490806009015490508a565b6001600160a01b038116600081815260026020908152604080832086845290915280822054905190929183156108fc02918491818181858888f193505050501580156106d2573d6000803e3d6000fd5b506001600160a01b03821660009081526003602090815260408083208684529091529020805460ff1916600117905561070a83610e43565b61071383610718565b505050565b6000805b60045481101561076b57826004828154811061073a5761073a611e3c565b90600052602060002090600a020160000154036107595780915061076b565b8061076381611e68565b91505061071c565b50805b60045461077d90600190611e81565b81101561089f576004610791826001611e98565b815481106107a1576107a1611e3c565b90600052602060002090600a0201600482815481106107c2576107c2611e3c565b600091825260209091208254600a9092020190815560018083015490820180546001600160a01b0319166001600160a01b0390921691909117905560028082019061080f90840182611ef6565b5060038181019061082290840182611ef6565b5060048181019061083590840182611ef6565b5060058201548160050155600682018160060190816108549190611ef6565b5060078181019061086790840182611ef6565b50600882810154908201805460ff191660ff90921615159190911790556009918201549101558061089781611e68565b91505061076e565b5060048054806108b1576108b1611fd7565b600082815260208120600a600019909301928302018181556001810180546001600160a01b0319169055906108e96002830182611750565b6108f7600383016000611750565b610905600483016000611750565b600582016000905560068201600061091d9190611750565b61092b600783016000611750565b5060088101805460ff19169055600060099091015590555050565b6000805b60045481101561099557826004828154811061096857610968611e3c565b90600052602060002090600a02016000015403610983578091505b8061098d81611e68565b91505061094a565b506001600482815481106109ab576109ab611e3c565b60009182526020909120600a90910201600801805460ff19169115159190911790555050565b60408051610140810182528981526001600160a01b038085166020830190815233938301938452606083018b8152608084018b905260a084018a905260c0840189905260e08401889052610100840186905242610120850152600580546001810182556000919091528451600a9091027f036b6384b5eca791c62761152d0c79bb0604c104a5fb6f4eb0703f3154bb3db0810191825592517f036b6384b5eca791c62761152d0c79bb0604c104a5fb6f4eb0703f3154bb3db1840180549186166001600160a01b031992831617905595517f036b6384b5eca791c62761152d0c79bb0604c104a5fb6f4eb0703f3154bb3db2840180549190951696169590951790925590519192917f036b6384b5eca791c62761152d0c79bb0604c104a5fb6f4eb0703f3154bb3db390910190610b089082611fed565b5060808201516004820190610b1d9082611fed565b5060a0820151600582015560c08201516006820190610b3c9082611fed565b5060e08201516007820190610b519082611fed565b50610100820151816008015561012082015181600901555050610b7388610946565b5050336000908152600260209081526040808320988352979052959095209190915550505050565b6001600160a01b0381166000908152600260209081526040808320868452909152812054906064610bcd83605d6120a7565b610bd791906120c6565b90506000610be58284611e81565b600080546040519293506001600160a01b03169184156108fc0291859190818181858888f19350505050158015610c20573d6000803e3d6000fd5b506040516001600160a01b0386169082156108fc029083906000818181858888f19350505050158015610c57573d6000803e3d6000fd5b506001600160a01b03841660009081526003602090815260408083208984529091529020805460ff19166001179055610c8f86610e43565b610c9886610718565b505050505050565b60408051610140810182526001805482523360208301908152928201898152606083018990526080830188905260a0830187905260c0830186905260e083018590526000610100840181905242610120850152600480549384018155905282517f8a35acfbc15ff81a39ae7d344fd709f28e8600b4aa8c65c6b64bfe7fe36bd19b600a90930292830190815593517f8a35acfbc15ff81a39ae7d344fd709f28e8600b4aa8c65c6b64bfe7fe36bd19c830180546001600160a01b0319166001600160a01b03909216919091179055519192917f8a35acfbc15ff81a39ae7d344fd709f28e8600b4aa8c65c6b64bfe7fe36bd19d90910190610da19082611fed565b5060608201516003820190610db69082611fed565b5060808201516004820190610dcb9082611fed565b5060a0820151600582015560c08201516006820190610dea9082611fed565b5060e08201516007820190610dff9082611fed565b5061010082015160088201805460ff19169115159190911790556101209091015160099091015560018054906000610e3683611e68565b9190505550505050505050565b6000805b600554811015610e96578260058281548110610e6557610e65611e3c565b90600052602060002090600a02016000015403610e8457809150610e96565b80610e8e81611e68565b915050610e47565b50805b600554610ea890600190611e81565b811015610fb9576005610ebc826001611e98565b81548110610ecc57610ecc611e3c565b90600052602060002090600a020160058281548110610eed57610eed611e3c565b600091825260209091208254600a9092020190815560018083015490820180546001600160a01b039283166001600160a01b0319918216179091556002808501549084018054919093169116179055600380820190610f4e90840182611ef6565b50600481810190610f6190840182611ef6565b506005820154816005015560068201816006019081610f809190611ef6565b50600781810190610f9390840182611ef6565b506008828101549082015560099182015491015580610fb181611e68565b915050610e99565b506005805480610fcb57610fcb611fd7565b600082815260208120600a600019909301928302018181556001810180546001600160a01b03199081169091556002820180549091169055906110116003830182611750565b61101f600483016000611750565b60058201600090556006820160006110379190611750565b611045600783016000611750565b5060006008820181905560099091015590555050565b60606004805480602002602001604051908101604052809291908181526020016000905b828210156113d55760008481526020908190206040805161014081018252600a86029092018054835260018101546001600160a01b031693830193909352600283018054929392918401916110d390611e02565b80601f01602080910402602001604051908101604052809291908181526020018280546110ff90611e02565b801561114c5780601f106111215761010080835404028352916020019161114c565b820191906000526020600020905b81548152906001019060200180831161112f57829003601f168201915b5050505050815260200160038201805461116590611e02565b80601f016020809104026020016040519081016040528092919081815260200182805461119190611e02565b80156111de5780601f106111b3576101008083540402835291602001916111de565b820191906000526020600020905b8154815290600101906020018083116111c157829003601f168201915b505050505081526020016004820180546111f790611e02565b80601f016020809104026020016040519081016040528092919081815260200182805461122390611e02565b80156112705780601f1061124557610100808354040283529160200191611270565b820191906000526020600020905b81548152906001019060200180831161125357829003601f168201915b505050505081526020016005820154815260200160068201805461129390611e02565b80601f01602080910402602001604051908101604052809291908181526020018280546112bf90611e02565b801561130c5780601f106112e15761010080835404028352916020019161130c565b820191906000526020600020905b8154815290600101906020018083116112ef57829003601f168201915b5050505050815260200160078201805461132590611e02565b80601f016020809104026020016040519081016040528092919081815260200182805461135190611e02565b801561139e5780601f106113735761010080835404028352916020019161139e565b820191906000526020600020905b81548152906001019060200180831161138157829003601f168201915b5050509183525050600882015460ff161515602080830191909152600990920154604090910152908252600192909201910161107f565b50505050905090565b60606005805480602002602001604051908101604052809291908181526020016000905b828210156113d55760008481526020908190206040805161014081018252600a86029092018054835260018101546001600160a01b039081169484019490945260028101549093169082015260038201805491929160608401919061146690611e02565b80601f016020809104026020016040519081016040528092919081815260200182805461149290611e02565b80156114df5780601f106114b4576101008083540402835291602001916114df565b820191906000526020600020905b8154815290600101906020018083116114c257829003601f168201915b505050505081526020016004820180546114f890611e02565b80601f016020809104026020016040519081016040528092919081815260200182805461152490611e02565b80156115715780601f1061154657610100808354040283529160200191611571565b820191906000526020600020905b81548152906001019060200180831161155457829003601f168201915b505050505081526020016005820154815260200160068201805461159490611e02565b80601f01602080910402602001604051908101604052809291908181526020018280546115c090611e02565b801561160d5780601f106115e25761010080835404028352916020019161160d565b820191906000526020600020905b8154815290600101906020018083116115f057829003601f168201915b5050505050815260200160078201805461162690611e02565b80601f016020809104026020016040519081016040528092919081815260200182805461165290611e02565b801561169f5780601f106116745761010080835404028352916020019161169f565b820191906000526020600020905b81548152906001019060200180831161168257829003601f168201915b505050505081526020016008820154815260200160098201548152505081526020019060010190611402565b6000546001600160a01b031633146116e257600080fd5b6001600160a01b0381166116f557600080fd5b600080546040516001600160a01b03808516939216917f8be0079c531659141344cd1fd0a4f28419497f9722a3daafe3b4186f6b6457e091a3600080546001600160a01b0319166001600160a01b0392909216919091179055565b50805461175c90611e02565b6000825580601f1061176c575050565b601f01602090049060005260206000209081019061178a919061178d565b50565b5b808211156117a2576000815560010161178e565b5090565b6000602082840312156117b857600080fd5b5035919050565b6000815180845260005b818110156117e5576020818501810151868301820152016117c9565b818111156117f7576000602083870101525b50601f01601f19169290920160200192915050565b8a81526001600160a01b038a81166020830152891660408201526101406060820181905260009061183f8382018b6117bf565b90508281036080840152611853818a6117bf565b90508760a084015282810360c084015261186d81886117bf565b905082810360e084015261188181876117bf565b6101008401959095525050610120015298975050505050505050565b6001600160a01b038116811461178a57600080fd5b600080604083850312156118c557600080fd5b8235915060208301356118d78161189d565b809150509250929050565b80356118ed8161189d565b919050565b6000806040838503121561190557600080fd5b82356119108161189d565b946020939093013593505050565b634e487b7160e01b600052604160045260246000fd5b600082601f83011261194557600080fd5b813567ffffffffffffffff808211156119605761196061191e565b604051601f8301601f19908116603f011681019082821181831017156119885761198861191e565b816040528381528660208588010111156119a157600080fd5b836020870160208301376000602085830101528094505050505092915050565b600080600080600080600080610100898b0312156119de57600080fd5b88359750602089013567ffffffffffffffff808211156119fd57600080fd5b611a098c838d01611934565b985060408b0135915080821115611a1f57600080fd5b611a2b8c838d01611934565b975060608b0135965060808b0135915080821115611a4857600080fd5b611a548c838d01611934565b955060a08b0135915080821115611a6a57600080fd5b50611a778b828c01611934565b935050611a8660c08a016118e2565b915060e089013590509295985092959890939650565b600080600060608486031215611ab157600080fd5b833592506020840135611ac38161189d565b91506040840135611ad38161189d565b809150509250925092565b60008060008060008060c08789031215611af757600080fd5b863567ffffffffffffffff80821115611b0f57600080fd5b611b1b8a838b01611934565b97506020890135915080821115611b3157600080fd5b611b3d8a838b01611934565b96506040890135915080821115611b5357600080fd5b611b5f8a838b01611934565b9550606089013594506080890135915080821115611b7c57600080fd5b611b888a838b01611934565b935060a0890135915080821115611b9e57600080fd5b50611bab89828a01611934565b9150509295509295509295565b60006020808301818452808551808352604092508286019150828160051b87010184880160005b83811015611cd057603f19898403018552815180518452878101516001600160a01b0316888501528681015161014088860181905290611c21828701826117bf565b91505060608083015186830382880152611c3b83826117bf565b9250505060808083015186830382880152611c5683826117bf565b9250505060a080830151818701525060c08083015186830382880152611c7c83826117bf565b9250505060e08083015186830382880152611c9783826117bf565b9250505061010080830151611caf8288018215159052565b50506101209182015194909101939093529386019390860190600101611bdf565b509098975050505050505050565b60006020808301818452808551808352604092508286019150828160051b87010184880160005b83811015611cd057603f19898403018552815180518452878101516001600160a01b03908116898601528782015116878501526060808201516101408287018190529190611d55838801826117bf565b9250505060808083015186830382880152611d7083826117bf565b9250505060a080830151818701525060c08083015186830382880152611d9683826117bf565b9250505060e08083015186830382880152611db183826117bf565b61010085810151908901526101209485015194909701939093525050509386019390860190600101611d05565b600060208284031215611df057600080fd5b8135611dfb8161189d565b9392505050565b600181811c90821680611e1657607f821691505b602082108103611e3657634e487b7160e01b600052602260045260246000fd5b50919050565b634e487b7160e01b600052603260045260246000fd5b634e487b7160e01b600052601160045260246000fd5b600060018201611e7a57611e7a611e52565b5060010190565b600082821015611e9357611e93611e52565b500390565b60008219821115611eab57611eab611e52565b500190565b601f82111561071357600081815260208120601f850160051c81016020861015611ed75750805b601f850160051c820191505b81811015610c9857828155600101611ee3565b818103611f01575050565b611f0b8254611e02565b67ffffffffffffffff811115611f2357611f2361191e565b611f3781611f318454611e02565b84611eb0565b6000601f821160018114611f6b5760008315611f535750848201545b600019600385901b1c1916600184901b178455611fd0565b600085815260209020601f19841690600086815260209020845b83811015611fa55782860154825560019586019590910190602001611f85565b5085831015611fc35781850154600019600388901b60f8161c191681555b50505060018360011b0184555b5050505050565b634e487b7160e01b600052603160045260246000fd5b815167ffffffffffffffff8111156120075761200761191e565b61201581611f318454611e02565b602080601f83116001811461204a57600084156120325750858301515b600019600386901b1c1916600185901b178555610c98565b600085815260208120601f198616915b828110156120795788860151825594840194600190910190840161205a565b50858210156120975787850151600019600388901b60f8161c191681555b5050505050600190811b01905550565b60008160001904831182151516156120c1576120c1611e52565b500290565b6000826120e357634e487b7160e01b600052601260045260246000fd5b50049056fea2646970667358221220d4fc77d51776ab7425ee70eae63c0338426d4313e45a90b0d7189d7e078d301764736f6c634300080f0033",
  "linkReferences": {},
  "deployedLinkReferences": {}
}